{
  "contractName": "BasicPool",
  "abi": [
    {
      "inputs": [
        {
          "internalType": "uint256",
          "name": "price_",
          "type": "uint256"
        }
      ],
      "stateMutability": "nonpayable",
      "type": "constructor"
    },
    {
      "anonymous": false,
      "inputs": [
        {
          "indexed": true,
          "internalType": "address",
          "name": "owner",
          "type": "address"
        },
        {
          "indexed": true,
          "internalType": "address",
          "name": "spender",
          "type": "address"
        },
        {
          "indexed": false,
          "internalType": "uint256",
          "name": "value",
          "type": "uint256"
        }
      ],
      "name": "Approval",
      "type": "event"
    },
    {
      "anonymous": false,
      "inputs": [
        {
          "indexed": true,
          "internalType": "address",
          "name": "previousOwner",
          "type": "address"
        },
        {
          "indexed": true,
          "internalType": "address",
          "name": "newOwner",
          "type": "address"
        }
      ],
      "name": "OwnershipTransferred",
      "type": "event"
    },
    {
      "anonymous": false,
      "inputs": [
        {
          "indexed": false,
          "internalType": "address",
          "name": "winner",
          "type": "address"
        },
        {
          "indexed": false,
          "internalType": "uint256",
          "name": "prize",
          "type": "uint256"
        }
      ],
      "name": "PoolEnd",
      "type": "event"
    },
    {
      "anonymous": false,
      "inputs": [
        {
          "indexed": false,
          "internalType": "address",
          "name": "funder",
          "type": "address"
        },
        {
          "indexed": false,
          "internalType": "uint256",
          "name": "tickets",
          "type": "uint256"
        }
      ],
      "name": "PoolFunded",
      "type": "event"
    },
    {
      "anonymous": false,
      "inputs": [
        {
          "indexed": false,
          "internalType": "address",
          "name": "refunder",
          "type": "address"
        },
        {
          "indexed": false,
          "internalType": "uint256",
          "name": "tickets",
          "type": "uint256"
        }
      ],
      "name": "TicketRefunded",
      "type": "event"
    },
    {
      "anonymous": false,
      "inputs": [
        {
          "indexed": true,
          "internalType": "address",
          "name": "from",
          "type": "address"
        },
        {
          "indexed": true,
          "internalType": "address",
          "name": "to",
          "type": "address"
        },
        {
          "indexed": false,
          "internalType": "uint256",
          "name": "value",
          "type": "uint256"
        }
      ],
      "name": "Transfer",
      "type": "event"
    },
    {
      "inputs": [
        {
          "internalType": "address",
          "name": "owner",
          "type": "address"
        },
        {
          "internalType": "address",
          "name": "spender",
          "type": "address"
        }
      ],
      "name": "allowance",
      "outputs": [
        {
          "internalType": "uint256",
          "name": "",
          "type": "uint256"
        }
      ],
      "stateMutability": "view",
      "type": "function",
      "constant": true
    },
    {
      "inputs": [
        {
          "internalType": "address",
          "name": "spender",
          "type": "address"
        },
        {
          "internalType": "uint256",
          "name": "amount",
          "type": "uint256"
        }
      ],
      "name": "approve",
      "outputs": [
        {
          "internalType": "bool",
          "name": "",
          "type": "bool"
        }
      ],
      "stateMutability": "nonpayable",
      "type": "function"
    },
    {
      "inputs": [
        {
          "internalType": "address",
          "name": "account",
          "type": "address"
        }
      ],
      "name": "balanceOf",
      "outputs": [
        {
          "internalType": "uint256",
          "name": "",
          "type": "uint256"
        }
      ],
      "stateMutability": "view",
      "type": "function",
      "constant": true
    },
    {
      "inputs": [],
      "name": "decimals",
      "outputs": [
        {
          "internalType": "uint8",
          "name": "",
          "type": "uint8"
        }
      ],
      "stateMutability": "view",
      "type": "function",
      "constant": true
    },
    {
      "inputs": [
        {
          "internalType": "address",
          "name": "spender",
          "type": "address"
        },
        {
          "internalType": "uint256",
          "name": "subtractedValue",
          "type": "uint256"
        }
      ],
      "name": "decreaseAllowance",
      "outputs": [
        {
          "internalType": "bool",
          "name": "",
          "type": "bool"
        }
      ],
      "stateMutability": "nonpayable",
      "type": "function"
    },
    {
      "inputs": [
        {
          "internalType": "address",
          "name": "spender",
          "type": "address"
        },
        {
          "internalType": "uint256",
          "name": "addedValue",
          "type": "uint256"
        }
      ],
      "name": "increaseAllowance",
      "outputs": [
        {
          "internalType": "bool",
          "name": "",
          "type": "bool"
        }
      ],
      "stateMutability": "nonpayable",
      "type": "function"
    },
    {
      "inputs": [],
      "name": "name",
      "outputs": [
        {
          "internalType": "string",
          "name": "",
          "type": "string"
        }
      ],
      "stateMutability": "view",
      "type": "function",
      "constant": true
    },
    {
      "inputs": [],
      "name": "owner",
      "outputs": [
        {
          "internalType": "address",
          "name": "",
          "type": "address"
        }
      ],
      "stateMutability": "view",
      "type": "function",
      "constant": true
    },
    {
      "inputs": [],
      "name": "renounceOwnership",
      "outputs": [],
      "stateMutability": "nonpayable",
      "type": "function"
    },
    {
      "inputs": [],
      "name": "symbol",
      "outputs": [
        {
          "internalType": "string",
          "name": "",
          "type": "string"
        }
      ],
      "stateMutability": "view",
      "type": "function",
      "constant": true
    },
    {
      "inputs": [],
      "name": "totalSupply",
      "outputs": [
        {
          "internalType": "uint256",
          "name": "",
          "type": "uint256"
        }
      ],
      "stateMutability": "view",
      "type": "function",
      "constant": true
    },
    {
      "inputs": [
        {
          "internalType": "address",
          "name": "recipient",
          "type": "address"
        },
        {
          "internalType": "uint256",
          "name": "amount",
          "type": "uint256"
        }
      ],
      "name": "transfer",
      "outputs": [
        {
          "internalType": "bool",
          "name": "",
          "type": "bool"
        }
      ],
      "stateMutability": "nonpayable",
      "type": "function"
    },
    {
      "inputs": [
        {
          "internalType": "address",
          "name": "sender",
          "type": "address"
        },
        {
          "internalType": "address",
          "name": "recipient",
          "type": "address"
        },
        {
          "internalType": "uint256",
          "name": "amount",
          "type": "uint256"
        }
      ],
      "name": "transferFrom",
      "outputs": [
        {
          "internalType": "bool",
          "name": "",
          "type": "bool"
        }
      ],
      "stateMutability": "nonpayable",
      "type": "function"
    },
    {
      "inputs": [
        {
          "internalType": "address",
          "name": "newOwner",
          "type": "address"
        }
      ],
      "name": "transferOwnership",
      "outputs": [],
      "stateMutability": "nonpayable",
      "type": "function"
    },
    {
      "inputs": [
        {
          "internalType": "uint256",
          "name": "_tickets",
          "type": "uint256"
        }
      ],
      "name": "fundPool",
      "outputs": [
        {
          "internalType": "uint256",
          "name": "",
          "type": "uint256"
        }
      ],
      "stateMutability": "payable",
      "type": "function",
      "payable": true
    },
    {
      "inputs": [
        {
          "internalType": "uint256",
          "name": "_tickets",
          "type": "uint256"
        }
      ],
      "name": "refundTicket",
      "outputs": [
        {
          "internalType": "uint256",
          "name": "",
          "type": "uint256"
        }
      ],
      "stateMutability": "nonpayable",
      "type": "function"
    },
    {
      "inputs": [],
      "name": "endGame",
      "outputs": [
        {
          "internalType": "address",
          "name": "",
          "type": "address"
        }
      ],
      "stateMutability": "nonpayable",
      "type": "function"
    }
  ],
  "bytecode": "0x608060405260006007553480156200001657600080fd5b50604051620029ac380380620029ac83398181016040528101906200003c91906200026a565b6040518060400160405280600981526020017f506f6f6c546f6b656e00000000000000000000000000000000000000000000008152506040518060400160405280600381526020017f504e5700000000000000000000000000000000000000000000000000000000008152508160039080519060200190620000c0929190620001a3565b508060049080519060200190620000d9929190620001a3565b5050506000620000ee6200019b60201b60201c565b905080600560006101000a81548173ffffffffffffffffffffffffffffffffffffffff021916908373ffffffffffffffffffffffffffffffffffffffff1602179055508073ffffffffffffffffffffffffffffffffffffffff16600073ffffffffffffffffffffffffffffffffffffffff167f8be0079c531659141344cd1fd0a4f28419497f9722a3daafe3b4186f6b6457e060405160405180910390a35080600681905550506200031f565b600033905090565b828054620001b190620002a0565b90600052602060002090601f016020900481019282620001d5576000855562000221565b82601f10620001f057805160ff191683800117855562000221565b8280016001018555821562000221579182015b828111156200022057825182559160200191906001019062000203565b5b50905062000230919062000234565b5090565b5b808211156200024f57600081600090555060010162000235565b5090565b600081519050620002648162000305565b92915050565b6000602082840312156200027d57600080fd5b60006200028d8482850162000253565b91505092915050565b6000819050919050565b60006002820490506001821680620002b957607f821691505b60208210811415620002d057620002cf620002d6565b5b50919050565b7f4e487b7100000000000000000000000000000000000000000000000000000000600052602260045260246000fd5b620003108162000296565b81146200031c57600080fd5b50565b61267d806200032f6000396000f3fe6080604052600436106100fe5760003560e01c8063715018a611610095578063a457c2d711610064578063a457c2d71461034d578063a9059cbb1461038a578063da3a5f72146103c7578063dd62ed3e146103f7578063f2fde38b14610434576100fe565b8063715018a6146102a357806375774100146102ba5780638da5cb5b146102f757806395d89b4114610322576100fe565b8063313ce567116100d1578063313ce567146101d357806339509351146101fe5780636cbc2ded1461023b57806370a0823114610266576100fe565b806306fdde0314610103578063095ea7b31461012e57806318160ddd1461016b57806323b872dd14610196575b600080fd5b34801561010f57600080fd5b5061011861045d565b6040516101259190611e18565b60405180910390f35b34801561013a57600080fd5b5061015560048036038101906101509190611ad0565b6104ef565b6040516101629190611dfd565b60405180910390f35b34801561017757600080fd5b5061018061050d565b60405161018d9190611fba565b60405180910390f35b3480156101a257600080fd5b506101bd60048036038101906101b89190611a81565b610517565b6040516101ca9190611dfd565b60405180910390f35b3480156101df57600080fd5b506101e8610618565b6040516101f59190611fd5565b60405180910390f35b34801561020a57600080fd5b5061022560048036038101906102209190611ad0565b61061d565b6040516102329190611dfd565b60405180910390f35b34801561024757600080fd5b506102506106c9565b60405161025d9190611db9565b60405180910390f35b34801561027257600080fd5b5061028d60048036038101906102889190611a1c565b6107ec565b60405161029a9190611fba565b60405180910390f35b3480156102af57600080fd5b506102b8610834565b005b3480156102c657600080fd5b506102e160048036038101906102dc9190611b0c565b610971565b6040516102ee9190611fba565b60405180910390f35b34801561030357600080fd5b5061030c610b56565b6040516103199190611db9565b60405180910390f35b34801561032e57600080fd5b50610337610b80565b6040516103449190611e18565b60405180910390f35b34801561035957600080fd5b50610374600480360381019061036f9190611ad0565b610c12565b6040516103819190611dfd565b60405180910390f35b34801561039657600080fd5b506103b160048036038101906103ac9190611ad0565b610d06565b6040516103be9190611dfd565b60405180910390f35b6103e160048036038101906103dc9190611b0c565b610d24565b6040516103ee9190611fba565b60405180910390f35b34801561040357600080fd5b5061041e60048036038101906104199190611a45565b610e71565b60405161042b9190611fba565b60405180910390f35b34801561044057600080fd5b5061045b60048036038101906104569190611a1c565b610ef8565b005b60606003805461046c90612178565b80601f016020809104026020016040519081016040528092919081815260200182805461049890612178565b80156104e55780601f106104ba576101008083540402835291602001916104e5565b820191906000526020600020905b8154815290600101906020018083116104c857829003601f168201915b5050505050905090565b60006105036104fc6110a4565b84846110ac565b6001905092915050565b6000600254905090565b6000610524848484611277565b6000600160008673ffffffffffffffffffffffffffffffffffffffff1673ffffffffffffffffffffffffffffffffffffffff168152602001908152602001600020600061056f6110a4565b73ffffffffffffffffffffffffffffffffffffffff1673ffffffffffffffffffffffffffffffffffffffff168152602001908152602001600020549050828110156105ef576040517f08c379a00000000000000000000000000000000000000000000000000000000081526004016105e690611efa565b60405180910390fd5b61060c856105fb6110a4565b858461060791906120bc565b6110ac565b60019150509392505050565b600090565b60006106bf61062a6110a4565b8484600160006106386110a4565b73ffffffffffffffffffffffffffffffffffffffff1673ffffffffffffffffffffffffffffffffffffffff16815260200190815260200160002060008873ffffffffffffffffffffffffffffffffffffffff1673ffffffffffffffffffffffffffffffffffffffff168152602001908152602001600020546106ba919061200c565b6110ac565b6001905092915050565b60006106d36110a4565b73ffffffffffffffffffffffffffffffffffffffff166106f1610b56565b73ffffffffffffffffffffffffffffffffffffffff1614610747576040517f08c379a000000000000000000000000000000000000000000000000000000000815260040161073e90611f1a565b60405180910390fd5b6000806107526114f6565b9150915060008290507f74f21bcf82256f16d800c1f530a28f1de030efdcc47a7b652d9aae84586ab6db834760405161078c929190611dd4565b60405180910390a161079e81836115b7565b6000600754116107e3576040517f08c379a00000000000000000000000000000000000000000000000000000000081526004016107da90611eda565b60405180910390fd5b82935050505090565b60008060008373ffffffffffffffffffffffffffffffffffffffff1673ffffffffffffffffffffffffffffffffffffffff168152602001908152602001600020549050919050565b61083c6110a4565b73ffffffffffffffffffffffffffffffffffffffff1661085a610b56565b73ffffffffffffffffffffffffffffffffffffffff16146108b0576040517f08c379a00000000000000000000000000000000000000000000000000000000081526004016108a790611f1a565b60405180910390fd5b600073ffffffffffffffffffffffffffffffffffffffff16600560009054906101000a900473ffffffffffffffffffffffffffffffffffffffff1673ffffffffffffffffffffffffffffffffffffffff167f8be0079c531659141344cd1fd0a4f28419497f9722a3daafe3b4186f6b6457e060405160405180910390a36000600560006101000a81548173ffffffffffffffffffffffffffffffffffffffff021916908373ffffffffffffffffffffffffffffffffffffffff160217905550565b600080600090505b82811015610aad57600061098c336116db565b90506000816000815181106109ca577f4e487b7100000000000000000000000000000000000000000000000000000000600052603260045260246000fd5b602002602001015190506001600760008282546109e791906120bc565b9250508190555060006009600083815260200190815260200160002060006101000a81548173ffffffffffffffffffffffffffffffffffffffff021916908373ffffffffffffffffffffffffffffffffffffffff1602179055506001600860003373ffffffffffffffffffffffffffffffffffffffff1673ffffffffffffffffffffffffffffffffffffffff1681526020019081526020016000206000828254610a9191906120bc565b9250508190555050508080610aa5906121aa565b915050610979565b503373ffffffffffffffffffffffffffffffffffffffff166108fc60065484610ad69190612062565b9081150290604051600060405180830381858888f19350505050158015610b01573d6000803e3d6000fd5b5081600860003373ffffffffffffffffffffffffffffffffffffffff1673ffffffffffffffffffffffffffffffffffffffff168152602001908152602001600020541015610b4e57600080fd5b819050919050565b6000600560009054906101000a900473ffffffffffffffffffffffffffffffffffffffff16905090565b606060048054610b8f90612178565b80601f0160208091040260200160405190810160405280929190818152602001828054610bbb90612178565b8015610c085780601f10610bdd57610100808354040283529160200191610c08565b820191906000526020600020905b815481529060010190602001808311610beb57829003601f168201915b5050505050905090565b60008060016000610c216110a4565b73ffffffffffffffffffffffffffffffffffffffff1673ffffffffffffffffffffffffffffffffffffffff16815260200190815260200160002060008573ffffffffffffffffffffffffffffffffffffffff1673ffffffffffffffffffffffffffffffffffffffff16815260200190815260200160002054905082811015610cde576040517f08c379a0000000000000000000000000000000000000000000000000000000008152600401610cd590611f7a565b60405180910390fd5b610cfb610ce96110a4565b858584610cf691906120bc565b6110ac565b600191505092915050565b6000610d1a610d136110a4565b8484611277565b6001905092915050565b600080600090505b82811015610e1657610d3f336001611877565b5060076000815480929190610d53906121aa565b91905055503360096000600754815260200190815260200160002060006101000a81548173ffffffffffffffffffffffffffffffffffffffff021916908373ffffffffffffffffffffffffffffffffffffffff1602179055506001600860003373ffffffffffffffffffffffffffffffffffffffff1673ffffffffffffffffffffffffffffffffffffffff1681526020019081526020016000206000828254610dfc919061200c565b925050819055508080610e0e906121aa565b915050610d2c565b5060065482610e259190612062565b341015610e67576040517f08c379a0000000000000000000000000000000000000000000000000000000008152600401610e5e90611e9a565b60405180910390fd5b6007549050919050565b6000600160008473ffffffffffffffffffffffffffffffffffffffff1673ffffffffffffffffffffffffffffffffffffffff16815260200190815260200160002060008373ffffffffffffffffffffffffffffffffffffffff1673ffffffffffffffffffffffffffffffffffffffff16815260200190815260200160002054905092915050565b610f006110a4565b73ffffffffffffffffffffffffffffffffffffffff16610f1e610b56565b73ffffffffffffffffffffffffffffffffffffffff1614610f74576040517f08c379a0000000000000000000000000000000000000000000000000000000008152600401610f6b90611f1a565b60405180910390fd5b600073ffffffffffffffffffffffffffffffffffffffff168173ffffffffffffffffffffffffffffffffffffffff161415610fe4576040517f08c379a0000000000000000000000000000000000000000000000000000000008152600401610fdb90611e5a565b60405180910390fd5b8073ffffffffffffffffffffffffffffffffffffffff16600560009054906101000a900473ffffffffffffffffffffffffffffffffffffffff1673ffffffffffffffffffffffffffffffffffffffff167f8be0079c531659141344cd1fd0a4f28419497f9722a3daafe3b4186f6b6457e060405160405180910390a380600560006101000a81548173ffffffffffffffffffffffffffffffffffffffff021916908373ffffffffffffffffffffffffffffffffffffffff16021790555050565b600033905090565b600073ffffffffffffffffffffffffffffffffffffffff168373ffffffffffffffffffffffffffffffffffffffff16141561111c576040517f08c379a000000000000000000000000000000000000000000000000000000000815260040161111390611f5a565b60405180910390fd5b600073ffffffffffffffffffffffffffffffffffffffff168273ffffffffffffffffffffffffffffffffffffffff16141561118c576040517f08c379a000000000000000000000000000000000000000000000000000000000815260040161118390611e7a565b60405180910390fd5b80600160008573ffffffffffffffffffffffffffffffffffffffff1673ffffffffffffffffffffffffffffffffffffffff16815260200190815260200160002060008473ffffffffffffffffffffffffffffffffffffffff1673ffffffffffffffffffffffffffffffffffffffff168152602001908152602001600020819055508173ffffffffffffffffffffffffffffffffffffffff168373ffffffffffffffffffffffffffffffffffffffff167f8c5be1e5ebec7d5bd14f71427d1e84f3dd0314c0f7b2291e5b200ac8c7c3b9258360405161126a9190611fba565b60405180910390a3505050565b600073ffffffffffffffffffffffffffffffffffffffff168373ffffffffffffffffffffffffffffffffffffffff1614156112e7576040517f08c379a00000000000000000000000000000000000000000000000000000000081526004016112de90611f3a565b60405180910390fd5b600073ffffffffffffffffffffffffffffffffffffffff168273ffffffffffffffffffffffffffffffffffffffff161415611357576040517f08c379a000000000000000000000000000000000000000000000000000000000815260040161134e90611e3a565b60405180910390fd5b611362838383611899565b60008060008573ffffffffffffffffffffffffffffffffffffffff1673ffffffffffffffffffffffffffffffffffffffff168152602001908152602001600020549050818110156113e8576040517f08c379a00000000000000000000000000000000000000000000000000000000081526004016113df90611eba565b60405180910390fd5b81816113f491906120bc565b6000808673ffffffffffffffffffffffffffffffffffffffff1673ffffffffffffffffffffffffffffffffffffffff16815260200190815260200160002081905550816000808573ffffffffffffffffffffffffffffffffffffffff1673ffffffffffffffffffffffffffffffffffffffff1681526020019081526020016000206000828254611484919061200c565b925050819055508273ffffffffffffffffffffffffffffffffffffffff168473ffffffffffffffffffffffffffffffffffffffff167fddf252ad1be2c89b69c2b068fc378daa952ba7f163c4a11628f55a4df523b3ef846040516114e89190611fba565b60405180910390a350505050565b6000806000805b600073ffffffffffffffffffffffffffffffffffffffff168273ffffffffffffffffffffffffffffffffffffffff16146115ab57600754423360075460405160200161154b93929190611d7c565b6040516020818303038152906040528051906020012060001c61156e9190612221565b90506009600082815260200190815260200160002060009054906101000a900473ffffffffffffffffffffffffffffffffffffffff1691506114fd565b81819350935050509091565b60006006546007546115c99190612062565b90506001600760008282546115de91906120bc565b9250508190555060006009600084815260200190815260200160002060006101000a81548173ffffffffffffffffffffffffffffffffffffffff021916908373ffffffffffffffffffffffffffffffffffffffff1602179055506001600860008573ffffffffffffffffffffffffffffffffffffffff1673ffffffffffffffffffffffffffffffffffffffff168152602001908152602001600020600082825461168891906120bc565b925050819055508273ffffffffffffffffffffffffffffffffffffffff166108fc829081150290604051600060405180830381858888f193505050501580156116d5573d6000803e3d6000fd5b50505050565b60606000600860008473ffffffffffffffffffffffffffffffffffffffff1673ffffffffffffffffffffffffffffffffffffffff1681526020019081526020016000205467ffffffffffffffff81111561175e577f4e487b7100000000000000000000000000000000000000000000000000000000600052604160045260246000fd5b60405190808252806020026020018201604052801561178c5781602001602082028036833780820191505090505b5090506000805b60075481101561186c578473ffffffffffffffffffffffffffffffffffffffff166009600083815260200190815260200160002060009054906101000a900473ffffffffffffffffffffffffffffffffffffffff1673ffffffffffffffffffffffffffffffffffffffff161415611859578083838151811061183e577f4e487b7100000000000000000000000000000000000000000000000000000000600052603260045260246000fd5b6020026020010181815250508180611855906121aa565b9250505b8080611864906121aa565b915050611793565b508192505050919050565b6000611883838361189e565b6000821161189057600080fd5b81905092915050565b505050565b600073ffffffffffffffffffffffffffffffffffffffff168273ffffffffffffffffffffffffffffffffffffffff16141561190e576040517f08c379a000000000000000000000000000000000000000000000000000000000815260040161190590611f9a565b60405180910390fd5b61191a60008383611899565b806002600082825461192c919061200c565b92505081905550806000808473ffffffffffffffffffffffffffffffffffffffff1673ffffffffffffffffffffffffffffffffffffffff1681526020019081526020016000206000828254611981919061200c565b925050819055508173ffffffffffffffffffffffffffffffffffffffff16600073ffffffffffffffffffffffffffffffffffffffff167fddf252ad1be2c89b69c2b068fc378daa952ba7f163c4a11628f55a4df523b3ef836040516119e69190611fba565b60405180910390a35050565b600081359050611a0181612619565b92915050565b600081359050611a1681612630565b92915050565b600060208284031215611a2e57600080fd5b6000611a3c848285016119f2565b91505092915050565b60008060408385031215611a5857600080fd5b6000611a66858286016119f2565b9250506020611a77858286016119f2565b9150509250929050565b600080600060608486031215611a9657600080fd5b6000611aa4868287016119f2565b9350506020611ab5868287016119f2565b9250506040611ac686828701611a07565b9150509250925092565b60008060408385031215611ae357600080fd5b6000611af1858286016119f2565b9250506020611b0285828601611a07565b9150509250929050565b600060208284031215611b1e57600080fd5b6000611b2c84828501611a07565b91505092915050565b611b3e816120f0565b82525050565b611b55611b50826120f0565b6121f3565b82525050565b611b6481612102565b82525050565b6000611b7582611ff0565b611b7f8185611ffb565b9350611b8f818560208601612145565b611b98816122df565b840191505092915050565b6000611bb0602383611ffb565b9150611bbb826122fd565b604082019050919050565b6000611bd3602683611ffb565b9150611bde8261234c565b604082019050919050565b6000611bf6602283611ffb565b9150611c018261239b565b604082019050919050565b6000611c19601a83611ffb565b9150611c24826123ea565b602082019050919050565b6000611c3c602683611ffb565b9150611c4782612413565b604082019050919050565b6000611c5f601283611ffb565b9150611c6a82612462565b602082019050919050565b6000611c82602883611ffb565b9150611c8d8261248b565b604082019050919050565b6000611ca5602083611ffb565b9150611cb0826124da565b602082019050919050565b6000611cc8602583611ffb565b9150611cd382612503565b604082019050919050565b6000611ceb602483611ffb565b9150611cf682612552565b604082019050919050565b6000611d0e602583611ffb565b9150611d19826125a1565b604082019050919050565b6000611d31601f83611ffb565b9150611d3c826125f0565b602082019050919050565b611d508161212e565b82525050565b611d67611d628261212e565b612217565b82525050565b611d7681612138565b82525050565b6000611d888286611d56565b602082019150611d988285611b44565b601482019150611da88284611d56565b602082019150819050949350505050565b6000602082019050611dce6000830184611b35565b92915050565b6000604082019050611de96000830185611b35565b611df66020830184611d47565b9392505050565b6000602082019050611e126000830184611b5b565b92915050565b60006020820190508181036000830152611e328184611b6a565b905092915050565b60006020820190508181036000830152611e5381611ba3565b9050919050565b60006020820190508181036000830152611e7381611bc6565b9050919050565b60006020820190508181036000830152611e9381611be9565b9050919050565b60006020820190508181036000830152611eb381611c0c565b9050919050565b60006020820190508181036000830152611ed381611c2f565b9050919050565b60006020820190508181036000830152611ef381611c52565b9050919050565b60006020820190508181036000830152611f1381611c75565b9050919050565b60006020820190508181036000830152611f3381611c98565b9050919050565b60006020820190508181036000830152611f5381611cbb565b9050919050565b60006020820190508181036000830152611f7381611cde565b9050919050565b60006020820190508181036000830152611f9381611d01565b9050919050565b60006020820190508181036000830152611fb381611d24565b9050919050565b6000602082019050611fcf6000830184611d47565b92915050565b6000602082019050611fea6000830184611d6d565b92915050565b600081519050919050565b600082825260208201905092915050565b60006120178261212e565b91506120228361212e565b9250827fffffffffffffffffffffffffffffffffffffffffffffffffffffffffffffffff0382111561205757612056612252565b5b828201905092915050565b600061206d8261212e565b91506120788361212e565b9250817fffffffffffffffffffffffffffffffffffffffffffffffffffffffffffffffff04831182151516156120b1576120b0612252565b5b828202905092915050565b60006120c78261212e565b91506120d28361212e565b9250828210156120e5576120e4612252565b5b828203905092915050565b60006120fb8261210e565b9050919050565b60008115159050919050565b600073ffffffffffffffffffffffffffffffffffffffff82169050919050565b6000819050919050565b600060ff82169050919050565b60005b83811015612163578082015181840152602081019050612148565b83811115612172576000848401525b50505050565b6000600282049050600182168061219057607f821691505b602082108114156121a4576121a36122b0565b5b50919050565b60006121b58261212e565b91507fffffffffffffffffffffffffffffffffffffffffffffffffffffffffffffffff8214156121e8576121e7612252565b5b600182019050919050565b60006121fe82612205565b9050919050565b6000612210826122f0565b9050919050565b6000819050919050565b600061222c8261212e565b91506122378361212e565b92508261224757612246612281565b5b828206905092915050565b7f4e487b7100000000000000000000000000000000000000000000000000000000600052601160045260246000fd5b7f4e487b7100000000000000000000000000000000000000000000000000000000600052601260045260246000fd5b7f4e487b7100000000000000000000000000000000000000000000000000000000600052602260045260246000fd5b6000601f19601f8301169050919050565b60008160601b9050919050565b7f45524332303a207472616e7366657220746f20746865207a65726f206164647260008201527f6573730000000000000000000000000000000000000000000000000000000000602082015250565b7f4f776e61626c653a206e6577206f776e657220697320746865207a65726f206160008201527f6464726573730000000000000000000000000000000000000000000000000000602082015250565b7f45524332303a20617070726f766520746f20746865207a65726f20616464726560008201527f7373000000000000000000000000000000000000000000000000000000000000602082015250565b7f456e6f75676820415641582069736e277420737570706c696564000000000000600082015250565b7f45524332303a207472616e7366657220616d6f756e742065786365656473206260008201527f616c616e63650000000000000000000000000000000000000000000000000000602082015250565b7f4e6f7420656e6f756768207469636b6574730000000000000000000000000000600082015250565b7f45524332303a207472616e7366657220616d6f756e742065786365656473206160008201527f6c6c6f77616e6365000000000000000000000000000000000000000000000000602082015250565b7f4f776e61626c653a2063616c6c6572206973206e6f7420746865206f776e6572600082015250565b7f45524332303a207472616e736665722066726f6d20746865207a65726f20616460008201527f6472657373000000000000000000000000000000000000000000000000000000602082015250565b7f45524332303a20617070726f76652066726f6d20746865207a65726f2061646460008201527f7265737300000000000000000000000000000000000000000000000000000000602082015250565b7f45524332303a2064656372656173656420616c6c6f77616e63652062656c6f7760008201527f207a65726f000000000000000000000000000000000000000000000000000000602082015250565b7f45524332303a206d696e7420746f20746865207a65726f206164647265737300600082015250565b612622816120f0565b811461262d57600080fd5b50565b6126398161212e565b811461264457600080fd5b5056fea26469706673582212206554aab2cf3d794bc906f2c7885852c089f67699d84a1d65674756ff57bbf12364736f6c63430008030033",
  "immutableReferences": {},
  "source": "// SPDX-License-Identifier: MIT\npragma solidity ^0.8.0;\n\nimport \"./PoolToken.sol\";\nimport \"@openzeppelin/contracts/utils/math/SafeMath.sol\";\nimport \"@openzeppelin/contracts/access/Ownable.sol\";\n\n/**   \n    @dev PoolToken' byle kullanmaktan emin olamadm. nce token' deploy edip sonra o haliyle\n    interface eklinde kullanabilirim.\n\n\n    abstract contract IPoolToken{\n        function  mintPoolTokens(uint _tokenAmount) public virtual returns (uint);\n    }\n    contract BasicPool {\n        IPoolToken PoolInterface = IPoolToken(0x06012c8cf97BEaD5deAe237070F9587f8E7A266d);\n    } \n*/\n\n/**\n    @title Basic Pool\n    @notice A token pool where users pay a owner-specified price to by tokens and one \n    user by a random factor gets all the tokens. In the background contract is supposed to gain\n    at least the exact amount (?) to keep everyone's tokens after the game.\n    @dev Ticket'lar ERC20 ile yazdm ama hangi ticket'n kimde olduunu yazmak iin daha kompleks\n    bir versiyon yazlmal ERC177 ile. u anki haliyle token'a gerek olmadan da kod alr. \n    @dev Kodun en byk darboaz, hem ticket'tan adrese gitmeyi hem ticket silmeyi eklemeyi ekonomik\n    olarak yapamamas.\n */\ncontract BasicPool is PoolToken, Ownable {\n  using SafeMath for uint256;\n\n  uint256 private _price;\n  uint256 totalTickets = 0;\n  mapping(address => uint256) funderTicketAmount;\n  mapping(uint256 => address) ticketToFunder;\n\n  event PoolEnd(address winner, uint256 prize);\n  event PoolFunded(address funder, uint256 tickets);\n  event TicketRefunded(address refunder, uint256 tickets);\n\n  constructor(uint256 price_) {\n    _price = price_;\n  }\n\n  /**\n    @notice Gets all tickets registered with funder's address\n    @dev This is somewhat different from balanceOf() function implemented in ERC20.sol\n    This function returns ticketId's corresponding to a funder.\n   */\n  function getTicketsByFunder(address _funder)\n    private\n    view\n    returns (uint256[] memory)\n  {\n    uint256[] memory result = new uint256[](funderTicketAmount[_funder]);\n    uint256 counter = 0;\n\n    for (uint256 i = 0; i < totalTickets; i++) {\n      if (ticketToFunder[i] == _funder) {\n        result[counter] = i;\n        counter++;\n      }\n    }\n    return result;\n  }\n\n  // Pay to contract\n  function fundPool(uint256 _tickets) external payable returns (uint256) {\n    // Add tickets to address\n    for (uint256 i = 0; i < _tickets; i++) {\n      mintPoolTokens(msg.sender, 1);\n      totalTickets++;\n      ticketToFunder[totalTickets] = msg.sender;\n      funderTicketAmount[msg.sender] += 1;\n    }\n    require(msg.value >= _tickets * _price, \"Enough AVAX isn't supplied\");\n\n    return totalTickets;\n  }\n\n  // Opt-out\n  function refundTicket(uint256 _tickets) external returns (uint256) {\n    for (uint256 i = 0; i < _tickets; i++) {\n      uint256[] memory userTickets = getTicketsByFunder(msg.sender);\n      uint256 rmTicket = userTickets[0];\n\n      totalTickets -= 1;\n      ticketToFunder[rmTicket] = address(0);\n      funderTicketAmount[msg.sender] -= 1;\n    }\n\n    payable(msg.sender).transfer(_tickets * _price);\n\n    require(funderTicketAmount[msg.sender] >= _tickets);\n    return _tickets;\n  }\n\n  /** \n        @notice Deposit - Withdraw functions\n        @dev Burada kontratn para kazanmas lazm. Hangi fonksiyonlarla para kazanacandan emin olamadm.\n        Dorudan withdraw-deposit ekledim.\n    */\n  function deposit(uint256 _amount) private pure returns (uint256) {\n    // require(depositToken.transferFrom(msg.sender, address(this), _amount), \"PoolToken::deposit: Transfer failed\");\n    // _approveDepositToken(_amount);\n    // require(compoundToken.mint(_amount) == 0, \"PoolToken::deposit: DepositToken mint failed\");\n    // _mint(msg.sender, _amount);\n\n    return _amount;\n  }\n\n  function withdraw(uint256 _amount) private pure returns (uint256) {\n    // _burn(msg.sender, _amount);\n    // require(compoundToken.redeemUnderlying(_amount) == 0, \"PoolToken::withdraw: DepositToken redeem failed\");\n    // require(depositToken.transfer(msg.sender, _amount), \"PoolToken::withdraw: Transfer failed\");\n\n    return _amount;\n  }\n\n  // Get random address internal\n  function getRandomWinner() private view returns (address, uint256) {\n    address winnerAddress = address(0);\n    uint256 winnerTicket;\n    while (winnerAddress != address(0)) {\n      winnerTicket =\n        uint256(\n          keccak256(abi.encodePacked(block.timestamp, msg.sender, totalTickets))\n        ) %\n        totalTickets;\n      winnerAddress = ticketToFunder[winnerTicket];\n    }\n    return (winnerAddress, winnerTicket);\n  }\n\n  function sendToWinner(address payable _winner, uint256 _winnerTicket)\n    private\n  {\n    //uint balance = address(this).balance;\n    uint256 prize = totalTickets * _price;\n\n    // Reduce total tickets and denominate the winning ticket (by assigning it to a 0 address)\n    totalTickets -= 1;\n    ticketToFunder[_winnerTicket] = address(0);\n    funderTicketAmount[_winner] -= 1;\n\n    _winner.transfer(prize);\n  }\n\n  // Send to address\n  function endGame() external onlyOwner returns (address) {\n    (address winner, uint256 winnerTicket) = getRandomWinner();\n    address payable winnerPayable = payable(winner);\n\n    emit PoolEnd(winner, address(this).balance);\n\n    sendToWinner(winnerPayable, winnerTicket);\n    require(totalTickets > 0, \"Not enough tickets\");\n\n    return winner;\n  }\n}\n",
  "sourcePath": "/home/zetsuboii/dev/solidity/khas/khas-pool-n-win/contracts/BasicPool.sol",
  "compiler": {
    "name": "solc",
    "version": "0.8.3+commit.8d00100c.Emscripten.clang"
  },
  "schemaVersion": "3.3.4",
  "updatedAt": "2021-04-02T09:21:44.852Z",
  "networkType": "ethereum",
  "devdoc": {
    "details": "Ticket'lar ERC20 ile yazdm ama hangi ticket'n kimde olduunu yazmak iin daha kompleks bir versiyon yazlmal ERC177 ile. u anki haliyle token'a gerek olmadan da kod alr. Kodun en byk darboaz, hem ticket'tan adrese gitmeyi hem ticket silmeyi eklemeyi ekonomik olarak yapamamas.",
    "kind": "dev",
    "methods": {
      "allowance(address,address)": {
        "details": "See {IERC20-allowance}."
      },
      "approve(address,uint256)": {
        "details": "See {IERC20-approve}. Requirements: - `spender` cannot be the zero address."
      },
      "balanceOf(address)": {
        "details": "See {IERC20-balanceOf}."
      },
      "decimals()": {
        "details": "Returns the number of decimals used to get its user representation. For example, if `decimals` equals `2`, a balance of `505` tokens should be displayed to a user as `5,05` (`505 / 10 ** 2`). Tokens usually opt for a value of 18, imitating the relationship between Ether and Wei. This is the value {ERC20} uses, unless this function is overloaded; NOTE: This information is only used for _display_ purposes: it in no way affects any of the arithmetic of the contract, including {IERC20-balanceOf} and {IERC20-transfer}."
      },
      "decreaseAllowance(address,uint256)": {
        "details": "Atomically decreases the allowance granted to `spender` by the caller. This is an alternative to {approve} that can be used as a mitigation for problems described in {IERC20-approve}. Emits an {Approval} event indicating the updated allowance. Requirements: - `spender` cannot be the zero address. - `spender` must have allowance for the caller of at least `subtractedValue`."
      },
      "increaseAllowance(address,uint256)": {
        "details": "Atomically increases the allowance granted to `spender` by the caller. This is an alternative to {approve} that can be used as a mitigation for problems described in {IERC20-approve}. Emits an {Approval} event indicating the updated allowance. Requirements: - `spender` cannot be the zero address."
      },
      "name()": {
        "details": "Returns the name of the token."
      },
      "owner()": {
        "details": "Returns the address of the current owner."
      },
      "renounceOwnership()": {
        "details": "Leaves the contract without owner. It will not be possible to call `onlyOwner` functions anymore. Can only be called by the current owner. NOTE: Renouncing ownership will leave the contract without an owner, thereby removing any functionality that is only available to the owner."
      },
      "symbol()": {
        "details": "Returns the symbol of the token, usually a shorter version of the name."
      },
      "totalSupply()": {
        "details": "See {IERC20-totalSupply}."
      },
      "transfer(address,uint256)": {
        "details": "See {IERC20-transfer}. Requirements: - `recipient` cannot be the zero address. - the caller must have a balance of at least `amount`."
      },
      "transferFrom(address,address,uint256)": {
        "details": "See {IERC20-transferFrom}. Emits an {Approval} event indicating the updated allowance. This is not required by the EIP. See the note at the beginning of {ERC20}. Requirements: - `sender` and `recipient` cannot be the zero address. - `sender` must have a balance of at least `amount`. - the caller must have allowance for ``sender``'s tokens of at least `amount`."
      },
      "transferOwnership(address)": {
        "details": "Transfers ownership of the contract to a new account (`newOwner`). Can only be called by the current owner."
      }
    },
    "title": "Basic Pool",
    "version": 1
  },
  "userdoc": {
    "kind": "user",
    "methods": {},
    "notice": "A token pool where users pay a owner-specified price to by tokens and one  user by a random factor gets all the tokens. In the background contract is supposed to gain at least the exact amount (?) to keep everyone's tokens after the game.",
    "version": 1
  }
}